:020000041000EA
:1000000000B5324B212058609868022188439860DF
:10001000D860186158612E4B002199600221596106
:100020000121F02299502B49196001219960352056
:1000300000F044F80222904214D00621196600F024
:1000400034F8196E01211966002018661A6600F04E
:100050002CF8196E196E196E052000F02FF8012189
:100060000842F9D1002199601B49196000215960AB
:100070001A491B48016001219960EB211966A021F2
:10008000196600F012F800219960164914480160C1
:100090000121996001BC002800D000471248134993
:1000A000086003C880F30888084703B5996A0420EC
:1000B0000142FBD001200142F8D103BD02B5186610
:1000C0001866FFF7F2FF186E186E02BD00000240BE
:1000D000000000180000070000035F00212200005C
:1000E000F4000018222000A00001001008ED00E03C
:1000F00000000000000000000000000074B24E7A12
:1001000000200420F7010010C3010010C5010010F9
:10011000C1010010C1010010C1010010C101001097
:10012000C1010010C1010010C1010010C701001081
:10013000C1010010C1010010C9010010CB01001065
:10014000CD010010CD010010CD010010CD01001037
:10015000CD010010CD010010CD010010CD01001027
:10016000CD010010CD010010CD010010CD01001017
:10017000CD010010CD010010CD010010CD01001007
:10018000CD010010CD010010CD010010CD010010F7
:10019000CD010010CD010010CD010010CD010010E7
:1001A000CD010010CD010010CD010010CD010010D7
:1001B000CD010010CD010010CD010010CD010010C7
:1001C00000BE00BE00BE00BE00BE00BE00F04BF888
:1001D000103800BEF2EB88714C2401107424011019
:1001E0003402001090A31AE700202149086006C8D5
:1001F00081F3088810471F48006800282FD10DA4FC
:100200000ECC002902D000F012F8F9E71A491B4A77
:10021000002000E001C19142FCD1194988471949E9
:1002200088471949884700BEFDE701C901C29A42C3
:10023000FBD3704774240110C0000020581A00201E
:100240000C3E011000000420000004200C3E0110B0
:1002500000100420001004200000000070470B482C
:1002600003F0F6FB0047EFF30580C0B270470000D3
:1002700008ED00E0000000D0581A0020B01E002059
:10028000192000100D030010212100105756000006
:1002900006005250ABB360535C030110060052508D
:1002A000861C03026C030110060052505422A29DCA
:1002B0007C03011005005250DE65F4680C3E01100D
:1002C000F8B5C04610B5064C2378002B07D1054B76
:1002D000002B02D0044800E000BF0123237010BDB2
:1002E000581B00200000000060F50010044B10B502
:1002F000002B03D00349044800E000BF10BDC046F6
:10030000000000005C1B002060F50010F0B5CE4638
:1003100000B58AB053480EF031F8182005F08AFC79
:1003200005000790C8210D23029302330193013B7E
:1003300000934D4BF022490000F018FC202005F0FE
:1003400079FC0400698AAA8A52084908200000F052
:10035000A4F804F087FD04F07DFF0F211A2000F0BF
:10036000E9FC002200211A2000F0FCFC00211A20E8
:1003700000F012FD3D4B1B68E022D20113403C4AC5
:10038000136051E073435B199B00E269D358DB07AC
:1003900001D4013554E0002399460FE06900494437
:1003A0007200D21912B209B20123079800F083FC3F
:1003B0000137012FF2DD01239C46E1444B46012B1E
:1003C000E7DC0027F5E72B4B04221A60274B1B685C
:1003D000DB05FBD5254B586880B204F05AFAE621BC
:1003E000890504F01BFA051C011C200000F056FAD8
:1003F000079800F016FB6669A06904F0ABFA089054
:100400000991281C04F0A6FA04900591301C04F010
:10041000A1FA02900391E3680193A3680093089AFC
:10042000099B154804F012FD0021079800F030FCEC
:10043000200000F0E7F80026A388B342C3DD0025C2
:100440006388AB429EDC0136F6E71821079804F07A
:100450001BFF05F06BFA2021200004F015FF05F0CA
:1004600065FAC046C91800000000205000C00440D2
:1004700000D0044000E0044060F5001010B5040016
:10048000438882885A4392000021C06904F046FBE9
:1004900000232361A360E36010BD70B504004180B8
:1004A00082804A431500900004F01AFBE061258029
:1004B0002000FFF7E3FF200070BD43885A4392B24B
:1004C000511889B2C269890051180B78DB0706D42C
:1004D0000B785B0703D40B78042213430B7070472F
:1004E00043885A4392B2511889B2C269890051189F
:1004F0000B78DB0703D50B78082213430B7070478A
:10050000F0B5C64600B5904601277F4231E045452B
:1005100021D116E04488013C23B21EE08588013DCC
:100520002DB21CE065435B199B00C269944663448D
:100530001A78140901340F252C40240115402C434E
:100540001C700136012E13DC8B191BB24246D519E3
:100550002DB28B42DBD0002BDCDB002DDEDB4488B0
:10056000A34200DB002382889542DBDB0025D9E72C
:100570000137012F02DC01267642E3E704BC9046F6
:10058000F0BDF0B5C64600B5904601277F4231E088
:10059000454521D116E04488013C23B21EE0858800
:1005A000013D2DB21CE065435B199B00C269944676
:1005B00063441A7814090F340F252C402401154088
:1005C0002C431C700136012E13DC8B191BB24246E2
:1005D000D5192DB28B42DBD0002BDCDB002DDEDB0E
:1005E0004488A34200DB002382889542DBDB0025A0
:1005F000D9E70137012F02DC01267642E3E704BC8C
:100600009046F0BDF0B583B00400002730E03A001A
:1006100029002000FFF774FF3378012213430422DE
:100620009343337000237370A3680133A3600135D3
:10063000ADB26388AB4219D97B43EB189B00E269EA
:10064000D61833785B07E2D433781B07EFD53A002E
:1006500029002000FFF795FF3378012293430732EA
:1006600093433370A368013BA360E0E70137BFB257
:10067000A388BB4201D90025DBE7002323610021C9
:10068000002536E05878FF2801D0013058705B789B
:10069000042B0AD92069844663442361013104E0B4
:1006A00018780F26B04330281CD0013292B26388EC
:1006B00093421CD96B43D3189B00E0698446634482
:1006C00018880028F1D01878C007E9D518780F26C7
:1006D000B0432028D6D03028D4D01878082630430C
:1006E0001870E2E71878042630431870DDE701350A
:1006F000ADB2A688AE4201D90022D8E7206903F046
:10070000FFF905002061A768380004F0C2F80190E5
:100710006088704304F0C2F8011C019804F079F875
:10072000061CA061002F14D0280004F0B2F80C4978
:1007300004F06FF8011CFE20800504F060F8051C31
:100740000849301C04F065F8011C281C04F066F808
:1007500000E000206061E3680133E36003B0F0BDB6
:1007600000007F439A99993DF0B5DE4657464E46C4
:100770004546E0B587B001908A461500049310AB5A
:100780001B88029311AB1B88039312AB1B7899460D
:1007900013AB1B78059314AB1B789B46002398463C
:1007A0002EE043469EB237E0A3B212E0039B4344DF
:1007B0009AB2029B191989B20198FFF791FE013490
:1007C000A5421ADD4B46002BEED02B1B9BB2013B02
:1007D0009BB23A0072439B185246D35C002BEED07A
:1007E0005B46002BE2D1039B43449AB2029B19194A
:1007F00089B20198FFF761FEE1E701239C46E044DE
:10080000049B1F00434509DD059A002AC9D04246D2
:100810009E1AB6B2013EB6B20024D1E707B03CBC86
:1008200090469946A246AB46F0BD000030B587B071
:100830000AAC247800250495039402930192009158
:10084000032303220249FFF78FFF07B030BDC046E4
:100850003C110020F0B585B007000DF099FD7988B6
:10086000033903F021F903910DF092FDB9880339A2
:1008700003F01AF90E000DF08BFD01242040050055
:100880000DF086FD0440B2B26B46998900942B00AE
:100890003800FFF7CBFF05B0F0BD0000F0B5CE4645
:1008A00000B588B00600081C716903F0A8FF041C9D
:1008B0000790494903F0E8FF002825D0211CFA20C1
:1008C000800503F09CFF8121C90503F0A7FF051CEB
:1008D000011C03F0A3FF8421C90503F09FFF03F06F
:1008E000FFFF04000021281C03F0CEFF002805D0E4
:1008F0002100F06803F004F9002907D00021281C2A
:1009000003F0BCFF002805D100250FE03000FFF701
:10091000A1FFF3E7651E002CF6D03000FFF79AFF29
:100920002C00F7E76378C82B1FD801353388AB421A
:100930004EDDAC00F3699C4664442378DB07F4D5B4
:100940002649079803F09AFF0028EBD06378032B21
:10095000E8D80DF01DFD642103F0A6F80029E1D1CF
:100960002378082213432370DCE70DF011FD1C49A6
:1009700003F09AF80029D8D174882100280003F0E8
:1009800093F80F008BB299462100280003F08CF8F1
:1009900083B24A46012AC8D9012BC6D9013C3F047B
:1009A0003F0CBC42C1DDB288013A0004000C824217
:1009B000BBDD0122049200220392029201934B4676
:1009C00000930323033207493000FFF7CDFEACE765
:1009D00008B004BC9146F0BDCDCC4C3CCDCC4CBD58
:1009E000EE02000030110020F0B5C64600B58C467E
:1009F0009046002203E00436B600F1510132424530
:100A00000BD28768C6686346995C7C6835001035F0
:100A10000123AB402342F8D1EDE7404604BC9046A9
:100A2000F0BDF0B5DE4657464E464546E0B585B0CA
:100A300000AF8046027C01239340D022120653610E
:100A4000427C01231343FB73002A47D00023424614
:100A5000537401220F23F9184046FFF7C5FF4346A0
:100A60005A8AD3089B46DDB243469B8A5A43D11724
:100A700007230B409B18DB109BB29A460024544579
:100A80002ED26B467B606E1C2B000933DB08DB002B
:100A90006A46D21A9546E946601C4246518AC90800
:100AA00003F002F880B201304A46107042465268A4
:100AB00011196A46501C2A0004F036F800234A46F1
:100AC0009355AA1C69464046FFF78EFF7B689D46FA
:100AD000FF235A461340E418A4B2D0E70223B6E736
:100AE0000023FB7301220F33F9184046FFF77CFF08
:100AF00043461A7C01239340D02212069361322090
:100B0000002100F0EBFEBD4605B03CBC9046994686
:100B1000A246AB46F0BD10B582B00400027C0123B2
:100B20009340D0221206536101A900230B80437C1D
:100B3000042213430B700222FFF756FF637C002B45
:100B400009D000236374227C01239340D022120633
:100B5000936102B010BD0223F4E710B503004068B2
:100B60001A88FF2103F0DAFF10BD0000F0B5DE4661
:100B700057464E464546E0B587B004001D0010AB11
:100B80001B78994611AB1B78984612AB1B789A4696
:100B900085600374022343744182828238492800AD
:100BA00004F0B0FA83460121280004F08DFA060013
:100BB000E060344B9D4260D007273900404600F08A
:100BC000B9F83900484600F0B5F80127009701232D
:100BD00042463100280004F0B1FA009701234A464A
:100BE0003100280004F0AAFA5B465A1CDB0112030C
:100BF0001343254A134003934B469B0280229205E0
:100C0000134342461A4313008022520313430593B1
:100C1000A023DB0202931D4B049302AB5A46310022
:100C2000280004F0C3FA2A683B00B3409A431343F8
:100C30002B60504600F0C8F853469F40D0231B0657
:100C40005F629F61638AA08A4343DA1707201040DE
:100C5000C018C01080B2208003F042FF6060200006
:100C6000FFF759FF2000FFF778FF200007B03CBCDA
:100C700090469946A246AB46F0BD06279DE7C04682
:100C800084F5001000002050FFFFFF9F00000E5071
:100C900010B5002908D0012905D143680288FE312A
:100CA000180003F03BFF10BD4368028800211800C4
:100CB00003F034FFF7E730B5002914DB448AA14282
:100CC00011DA002A0FDB858AAA420CDA62438A18FD
:100CD000D51707242C40A218D210012B04D0002BCA
:100CE0000FD0022B19D030BD43681204120C9A1891
:100CF00007231940063B8B40190013780B431370F0
:100D0000F1E743681204120C9A1807230B400121E3
:100D1000994013788B431370E5E743681204120C73
:100D20009A1807231940063B8B40190013784B4053
:100D30001370D8E710B58300084A944663441C68D2
:100D400040226240C02414408022520113431C60A0
:100D5000C000034B9C466044416010BD04C001408C
:100D60000040014080000B4B9C46604400290DD0A0
:100D70000823002A0CD004221343026853400C229B
:100D80001340802252011043036070470023F0E7B4
:100D90000022F1E704C00140002909D08000094B7E
:100DA0009C46604480239B011843402303607047A6
:100DB0008000044B9C466044C0239B0118434023A1
:100DC0000360F4E704C0014010B501238340D02242
:100DD0001206936293610521FFF7ACFF10BD00007E
:100DE000EFF3108072B6034B1B68002BFBD0BFF3F0
:100DF0005F8F70472C0100D0BFF35F8F024B002242
:100E00001A6080F3108870472C0100D0F8B50500F7
:100E10000C001600FFF7E4FFE308EF18ED5C072174
:100E200021402B00CB40DB0707D401228A40D3B2FC
:100E30002B433B70FFF7E0FFF8BD2100300001F0CD
:100E400091F9F0B583B00600019114001F00FFF77F
:100E5000C7FF0500BC4210D8E208B018B15C0722F9
:100E600022400B00D340DB0701D50134F2E7012318
:100E70009340DBB21943017001E001246442280071
:100E8000FFF7BAFF002C02DB200003B0F0BD019B8E
:100E9000002BF9D0089801F065F9000000231F2B02
:100EA00008D8054A9A189200BFF35F8F002111609D
:100EB0000133F4E77047C04640000034054A10781B
:100EC000431CDBB21370172B02D9130010221A70C7
:100ED0007047C04645110020034B1B680220184094
:100EE000431E9841C0B2704700C0064070B5040070
:100EF0000D00062001F054FAC000290002F000FEA7
:100F00000300C6097F20184001304008002E05D09C
:100F10000D4B9E4214D83500060000E001256562A5
:100F2000A6622C3480208001044300232360062025
:100F300001F036FA8000A901891902F0E1FD70BDC7
:100F40000026024DEBE7C046FEFF0000FFFF000059
:100F5000002909D00A22064B9C466044434258416E
:100F60004000044BC252704780225200F3E7C04653
:100F70000080FCBF801C002070B505000C0006201E
:100F800001F00EFA002829D0164B9D4227D080226E
:100F9000D203154B1A60154B1A60154B9B68110054
:100FA0009943FAD100212800FFF7D2FF2100280041
:100FB000FFF79CFF2C002C34E96A60224A406E2126
:100FC000114080225201224311600A4B2B6380237F
:100FD0009B01234310221A600323AB6470BD80225F
:100FE0001204D6E70080034000E0004000F000401B
:100FF00000C000400103000040BF002000217047F6
:1010000070B505000C00080000F0DAFC200000F0CC
:10101000BDFD0849200000F0FDFCFFF74FFF064B27
:101020009C466044800068602C75A400034BE5502A
:1010300070BDC0461513001040000034541C002041
:1010400010B5002922D003681B7B99421ED8174B8C
:101050009C466144090183689C4661440C68496868
:10106000002A19D003681B7B9A4215D883680F4861
:101070008446624412019A181068536802000120E5
:101080008B4201D80ED00020C0B210BD084B094AD7
:101090003921094801F048F8054B064A392106482C
:1010A00001F042F8A242EFD8EDE7C046FFFFFF0F84
:1010B000E8F50010A8F80010A4F5001010B50029FC
:1010C0001ED0037B99421BD84B005B18033B04687E
:1010D000A4466344002919D0002A1DD0914221D092
:1010E000002A25D0047BA24222D804685000801830
:1010F000033820188170197800291FD11A7010BD8B
:10110000104B114A6921114801F00EF8104B114A99
:1011100070310E4801F008F80F4B0E4A71210B4850
:1011200001F002F80D4B0B4A7221084800F0FCFF59
:10113000044B054A6921054800F0F6FF41701A701A
:10114000DDE7C0461CF6001068F8001038F6001005
:1011500090F6001074F800109CF60010A8F600102D
:1011600070B506000D001400002914D0002A14D018
:10117000806873689847002806D022002900300054
:10118000FFF79CFF280007E02A0021003000FFF74E
:1011900095FF200000E0100070BD0800FCE7000093
:1011A000F0B583B00500009201930AAB1C780BAB3D
:1011B0001F78002C26D003685A7B944207D1012364
:1011C000002B19D1002C3BD1200003B0F0BD002C26
:1011D0000CD01A7B944209D81A6863001B19033B90
:1011E000D3189B78002BEBD00123E9E73E4B3F4A15
:1011F00069213F4800F098FF3E4B3F4A62213F483B
:1012000000F092FF03689C7B002CDBD012D01A7B8D
:1012100094420FD862001219033A19688C4662444E
:1012200051789973002900D1D973002393705370BA
:101230001370C7E72C4B2D4A69212D4800F074FF2D
:10124000002C3AD02B681B7B9C4236D82C4BE318E1
:101250001B01AA6894466344009A1A60019A5A6076
:10126000089A9A60099ADA602E68002C2BD030D048
:10127000337B9C422DD863001B19033B3268944694
:10128000634400229A705A701A70717B22003000F9
:10129000FFF766FF7073844200D095E7287D009ABF
:1012A000019B00F0FFFB061E01D0002F17D00C9B06
:1012B000002B00D188E71E7086E7124B124A3921B5
:1012C0000E4800F031FF114B114AA621084800F0EA
:1012D0002BFF054B054A6921054800F025FF2868CA
:1012E000210000F01DFEE2E71CF6001068F8001077
:1012F00038F60010C0F60010E0F80010A4F5001059
:10130000FFFFFF0FE8F50010A8F80010A0F500108F
:1013100088F80010F0B5DE4657464E464546E0B523
:101320008BB00990002308938200B34BD658370046
:1013300052E0B24BB24A3D21B24800F0F5FEB24B4A
:10134000B24A3921B24800F0EFFE002901D100284D
:1013500069D10021404600F0D9FDA04219D12A6888
:101360006B6806920793AB689846EB689A464346CB
:10137000002B14D0002C18D03B681B7B9C4214D847
:10138000631EFA68D35C08931B021843386100207F
:1013900015E0A04BA04A89219D4800F0C5FE9F4B57
:1013A0009D4A8D219A4800F0BFFE974B9C4A3E21F2
:1013B000974800F0B9FE00239A46984600207B68C3
:1013C000BFF35F8F00221A6086F310884346002B1C
:1013D00032D1002800D107E100F0FEFA02000B1E16
:1013E000A7DB00200021069007917868EFF31086B4
:1013F00072B601680029FCD0BFF35F8F3968884658
:101400004C7B002CD7D09AD0097B8C4297D8854949
:1014100065182D01B9688C46654428686968801A8A
:101420009941002991DD2A686B68099800F03AFB20
:1014300000239A469846C2E7089B1B02234399461D
:1014400051461800C04705000E007A68EFF3108B74
:1014500072B6136859424B41D9B2002BF9D1BFF390
:101460005F8F002E26DB002E52DD3B69002B53D010
:101470004B4572D100F0B0FA02000B1E73DB010085
:10148000180052197341984202D804D1914202D9EE
:1014900001225242D317002B6BDB00210491013152
:1014A0000391029451460191414600913800FFF7A3
:1014B00077FE49E03B69002BD5D04B451CD1069AFD
:1014C000079B10001900521BB341994202D804D166
:1014D000904202D901225242D317002B12DB002185
:1014E00004910131039102945146019141460091CA
:1014F0003800FFF755FE27E04B4B474A9C214448F4
:1015000000F012FE3D4B3E4A3D213E4800F00CFEED
:10151000002E01D1002DA8D13A68002C45D0537B74
:101520009C422CD1012100293FD1D37B002B42D1F9
:10153000D473002C52D03B681B7B9C424ED8FA6877
:10154000013C135D0133135500233B617A68BFF3FF
:101550005F8F13608BF310883EE7334B2E4A9F2139
:101560002B4800F0E1FD254B254A3D21254800F0A0
:10157000DBFD224B224A3D21224800F0D5FD002C04
:101580000DD0137B9C420AD863001B19033B1068E3
:10159000844663449B78002BC5D00121C3E7234BCD
:1015A000234A6921234800F0BFFD234B234AF7213A
:1015B000204800F0B9FD002B0AD0117B8B4207D8E0
:1015C0005900CB18033B11688C4663445C70AFE74D
:1015D000164B174A6921174800F0A6FD0A4B104A1E
:1015E0003E210B4800F0A0FD0BB03CBC9046994654
:1015F000A246AB46F0BDC046541C0020E8F60010E1
:1016000050F8001004F70010E8F50010A8F80010DA
:10161000A4F5001058F70010F8F8001070F700104B
:10162000B4F80010FFFFFF0F7CF700101CF600104D
:1016300068F8001038F60010B8F7001098F800109D
:1016400010B5084B5B68002B00D010BD054C230083
:10165000054A1021206800F079FB03212000FFF7E4
:10166000CFFCF2E7481100204110001010B5064BE6
:101670005B68002B01D0044810BD044B044A59217B
:10168000044800F051FDC04648110020DCF700106E
:10169000C8F80010A4F50010F0B5DE4657464E46D7
:1016A0004546E0B58BB0804616001F00149B9A4655
:1016B000159B994616AB1B789B461F2302AA94469E
:1016C000634400221A7032E0002809D042461268B2
:1016D000127B904204D8421E4146C9688A5C48E0A9
:1016E000434B444A3E21444800F01EFD0798002B1E
:1016F00075D05B46002B72D04946D04704000D00E0
:1017000003000B4300D171E0002946DB00F064F9CF
:1017100006000F1E55DB36196F41B94202D804D1BD
:10172000B04202D901267642F717002F4FDB43461D
:101730005A68EFF3108472B6136859424B41D9B21C
:101740000791002BF8D1BFF35F8F1F3302AA944695
:10175000634404930023039302934B46019353463F
:10176000009332003B004046FFF71AFD031EABD149
:10177000020041464968BFF35F8F00250D6084F386
:101780001088002B29D01F2302A98C4663441B78A4
:10179000002BABD112021043A9E732003B00361BED
:1017A000AF41BB4202D804D1B24202D901267642EF
:1017B000F717002FBBDA114B114A3D21114800F0F9
:1017C000B3FC0E4B0E4A3D210E4800F0ADFC0B4B16
:1017D0000B4A3D210B4800F0A7FC012040420BB012
:1017E0003CBC90469946A246AB46F0BD0798F6E74A
:1017F000E8F50010B4F80010A4F50010E8F60010A9
:1018000050F8001004F70010F0B587B006000F0084
:10181000FEF729FD00281FD106246442E517A4190C
:101820007D41BD4202D803D1B44201D90024002534
:10183000002D14DB0494059500F0CEF802000B1E79
:1018400013DBA41A9D41002D17DC14D030003900A1
:1018500000F0CEF807B0F0BD1A4800F083FC1A4B38
:101860001A4A3D211A4800F05FFC174B174A3D21E8
:10187000174800F059FC002CE8D0FFF7F7FE0023D2
:1018800002930193134B0093049A059BFFF704FF07
:10189000002806DADAE7002300E00023002BD5D188
:1018A00020BF0499059A0C4B5B6A9A42F5D80A4806
:1018B000806A884203D29A42EDD00123EEE70123E9
:1018C000ECE7C04600F80010E8F6001050F80010F1
:1018D00004F70010F90F001000400540F8B50400AF
:1018E0000D0000F079F802000B1E10DB200029002B
:1018F000801859418B4202D804D1824202D901207A
:101900004042C117002908DBFFF77EFFF8BD064BF8
:10191000064A3D21064800F007FC034B034A3D21DF
:10192000034800F001FCC046E8F6001050F8001033
:1019300004F7001070B5EFF305833F20184010380E
:10194000EFF3108472B6194B1B68002BFBD0BFF36A
:101950005F8F012319008140154A5163154A12789F
:101960001500C5402B4214D0114B5D6A8300124E06
:101970009B599D4206D38300104D5B598A430D4904
:101980000A7007E00A4A031D9B00995899500023EA
:1019900000E00023BFF35F8F044A0021116084F34D
:1019A0001088002B00D0984770BDC046280100D099
:1019B000004005407C1C0020641C0020D01B00203F
:1019C00010B50100024A0348FFF720FA10BDC046D7
:1019D00020F90010791C0020044B5B6A034A906ACE
:1019E0001900536A9942F9D17047C046004005403A
:1019F000074B5B6A8B4204D2054B5B6AFAE7044BE8
:101A00005B6A8B4203D1024B9B6A8342F7D37047D8
:101A10000040054070B504000D00EFF3108672B66B
:101A20001B4B1B68002BFBD0BFF35F8F002D1CD01E
:101A3000200000F0B1FD174B83420BD019002000AD
:101A400000F0B2FD0121200000F09EFD0123A34023
:101A5000114A1360A400114BE550BFF35F8F0C4B8C
:101A600000221A6086F3108870BDA2000B4B002183
:101A7000D1500122A2400A490B7893430B700549CB
:101A8000200000F0BBFD0021200000F07DFDE4E718
:101A9000280100D03519001038600540D01B002007
:101AA0007C1C0020F0B5DE4600B584B004001500B3
:101AB00001921E000293FFF78FFF03958E4202D81A
:101AC0004ED185424CD9EFF3108B72B6274B1B6871
:101AD000002BFBD0BFF35F8F254A17780125A54067
:101AE000EBB23B431370234B5D63221D92000199BF
:101AF000D150A2002049029850501B6A2B4212D1AB
:101B00001C4B1B6C2B4208D00020BFF35F8F174B80
:101B100000221A608BF3108823E0184B184AB32177
:101B2000184800F001FBFFF757FF8E4214D802D18E
:101B3000039B834210D80E4B1B78BB420ED00D4B3B
:101B40001D625D631F2004400123A3400E4A136001
:101B5000074B1F701E38D8E70020D6E70120D4E7D6
:101B6000012004B004BC9346F0BDC046280100D05B
:101B70007C1C002000400540641C002044F900103B
:101B8000B8F9001068F9001080E200E010B5EFF33A
:101B9000108472B60A4B1B68002BFBD0BFF35F8F1B
:101BA00001238340074A136207490A789A430A705F
:101BB000BFF35F8F024B00221A6084F3108810BDC0
:101BC000280100D0004005407C1C0020024B9C46B0
:101BD00061448900016070474000003410B5040082
:101BE000FFF76CF901002000FFF7F0FFFF232371DE
:101BF000BFF35F8F10BD000010B500291ED0037B1E
:101C000099421BD84B005B18033B0468A44663440D
:101C1000002919D0002A1DD0914221D0002A25D0B8
:101C2000047BA24222D80468500080180338201890
:101C30008170197800291FD11A7010BD104B114AFC
:101C40006921114800F070FA104B114A70310E48AA
:101C500000F06AFA0F4B0E4A71210B4800F064FA4B
:101C60000D4B0B4A7221084800F05EFA044B054AFE
:101C70006921054800F058FA41701A70DDE7C04646
:101C80001CF6001028FB001038F6001090F600102B
:101C900034FB00109CF60010A8F6001070B506008A
:101CA0000D001400002914D0002A14D08068736835
:101CB0009847002806D0220029003000FFF79CFF3B
:101CC000280007E02A0021003000FFF795FF2000E0
:101CD00000E0100070BD0800FCE7000010B5002314
:101CE000437301338373037BC3730123027B9A42E3
:101CF00014D9002B0CD0027B934209D85A00D21879
:101D0000033A01688C4662440133DBB25370EDE75D
:101D10000B4B0C4A69210C4800F006FA002A09D046
:101D2000924207D8016853009A18033A8A18002390
:101D3000537010BD024B034A6921034800F0F4F9C7
:101D40001CF6001028FB001038F6001010B50173C7
:101D500042608360FFF7C2FF10BD000070B5040051
:101D6000081E00D170BD002934D0237B994231D8A0
:101D70004B005B18033B2268944663445A78002A60
:101D8000F0D02DD0237B9A422AD853009B18033BD6
:101D900021688C4663445D7800215970002825D065
:101DA000237B984222D843001B18033B21688C46B2
:101DB00063440021597001002000FFF76FFF060007
:101DC00029002000FFF7CAFF020031002000FFF7C2
:101DD00065FFC7E7084B094A6921094800F0A4F9E3
:101DE000054B064A6921064800F09EF9024B034A5A
:101DF0006921034800F098F91CF6001028FB001038
:101E000038F6001070B505000C001600002928D027
:101E10002DD0037B99422AD84B005B18033B026804
:101E2000944663445A78002A27D19A78002A2AD106
:101E30001978FFF793FF0300002E03D0EA7B002AF6
:101E400027D1EC73002B37D1002C49D02B7B9C423F
:101E500046D82B6861000C19033C1C1900236370E1
:101E600070BD224B224A3821224800F05DF9224BF6
:101E7000224A6921224800F057F9224B1C4A3A2194
:101E80001C4800F051F9204B194A3B21194800F039
:101E90004BF9002A0AD0297B8A4207D851008A18B8
:101EA000033A29688C4662445470CAE7124B134ABD
:101EB0006921134800F038F9002B0BD02A7B93429C
:101EC00008D843001B18033B2A6894466344002249
:101ED0009A70B9E7084B094A6921094800F024F9CA
:101EE000054B064A6921064800F01EF964FA001005
:101EF00048FB00106CFA00101CF6001028FB0010C4
:101F000038F60010B4FA0010DCFA001070B50400C6
:101F10000A00457B2900FFF775FF6073280070BD3C
:101F200070B50400002966D0437B8B420ED0002997
:101F300011D0037B99420ED84B005B18033B02681B
:101F4000D0188378002B0CD1002055E00121FFF739
:101F5000DDFF012050E0294B294A6921294800F082
:101F6000E3F8002B1FD0227B93421CD825685A002F
:101F7000D318033BEA18EB5C8B421AD0002B1BD022
:101F8000227B934218D85A00D318033B2268D218F8
:101F900053788B4216D0002BF0D11B4B1B4A672184
:101FA0001B4800F0C1F8154B154A6921154800F08F
:101FB000BBF84378137007E0104B114A69211148B0
:101FC00000F0B2F84378537000238370437001220D
:101FD0002000FFF717FF0200617B814205D020003F
:101FE000FFF75CFE6073012006E00A4B074A6D2193
:101FF000074800F099F8002070BDC0461CF600109C
:1020000028FB001038F6001000FB00105CFB0010ED
:102010006CFA001008FB001070B5234B234A1A60BD
:10202000234B244A1A60244B9A68224B9343FAD1DB
:10203000224C234B9C4202D208CC9847F9E700F08F
:102040001DF91B4B1F4A1A601B4B9B68DB43DB01CE
:10205000FAD11D4B40229A675A671A67DA661B4C01
:1020600003E02000FFF7BAFD0834194B9C42F8D377
:10207000184CA168184DC022280002F055FDA5603B
:10208000FEF7F1F8002800D000BEFEF707FF00F0D1
:1020900017FCFFF7D5FA114C01E008CC9847104B1C
:1020A0009C42FAD370BDC04600E00040BFCDFFFFA8
:1020B00000F00040FE7F3C0000C00040401A0020BD
:1020C000501A0020FFFFFF0100F00140381A0020E5
:1020D000401A002000ED00E000000020501A00200F
:1020E000581A002000BEFDE703000A4A1268002AC1
:1020F00008D0084A1068C318074A9A4206D3054A0E
:1021000013607047034A05491160F2E7012040421D
:10211000F7E7C046501C002000000420B01E00203D
:1021200010B5FFF7DFFF000010B582B00C001900FA
:10213000002A0CD0084B002A0BD0019200932300F8
:102140000200064802F082FE0120FFF7CBFF044B9D
:10215000F1E7034AF1E7C04674FB001084FB00106E
:1021600080FB00100FB400B583B0084802F03EFEBB
:10217000049B002B07D005A90191180002F044FE32
:10218000034802F033FE0120FFF7ACFFB4FB001060
:1021900080F50010F8B5D646474680B506000D001C
:1021A0001700089A934243D3190E1802089A002385
:1021B00001F0ECFC80467400A419A4002A4B9C4654
:1021C00064446368834200D26060331FDBB29A4686
:1021D000012B33D9C0239B012343802212011A60B3
:1021E000B300224A9958002905D0506901F088FCB3
:1021F00001300138FDD17F0122685740E0221740AD
:1022000080235B0123431F605246012A21D980238A
:102210009B012343802212011A6043466360B6008B
:10222000124B089AF25001200CBC90469A46F8BD19
:102230000F4B104A2E211048FFF776FF012DC9D110
:10224000C0239B01234303221A60A368DB07FCD54C
:10225000D1E72168694003220A401A60A26801237D
:10226000AB401342FAD0D2E700800040E01B0020D0
:10227000C4FB001028FC0010D8FB001030B583B060
:102280000C2000F093F8FEF727FE00280DD0002365
:10229000092B05D89900334A334888500133F7E7B2
:1022A000304B324A5A6203B030BD314B00229A673C
:1022B00000F084F82F4B01221A602D4B5B6C012B30
:1022C000FBD12D4B03221A60294B9B6B012BFBD1B9
:1022D000C0239B01294A1360294A1360294B9A683D
:1022E000C0239B019343F9D1022400940633264A6C
:1022F0000121264800F076F800940523244A0121A4
:10230000244800F06FF8244B00930022022104209F
:10231000FFF740FF214D00952B00002201210520F1
:10232000FFF738FF104C0094230000220021072003
:10233000FFF730FF00942300002200210820FFF760
:1023400029FF0A4B00932300002200210920FFF7F8
:1023500021FF00952B00002200210620FFF71AFF25
:10236000A1E7C046E01B0020006CDC021BB70000A8
:10237000008000403CB0004030B0004000E0004031
:1023800000F0004000C00040002F6859008002406B
:1023900000389C1C00C00240001BB7004059730766
:1023A0008000014BC0587047E01B002080239B0039
:1023B0000343014AD362704700800540064BAA22BE
:1023C00012011A602F22DA60044B054A1A60024B90
:1023D0005B68002BFBDA704700400240006002405F
:1023E00000B0FA00F8B5CE46474680B504008946ED
:1023F00090461D00089E01235B42436000238360DA
:102400000C2001F07DFB07004B46236043011B1AA3
:102410009901C91AC90009188901404601F070FBE9
:102420000200103A98235B009A421FD86B1E062BBD
:1024300022D8731E062B1FD8B54223D343461A0950
:10244000BA4225D3A060221DC0239B011343212241
:102450001A602268002AFCDA2D0436032E43E66057
:1024600008221A600CBC90469946F8BD0B4B0C4AEA
:102470001A210C48FFF758FE0B4B094A1D21094849
:10248000FFF752FE094B064A23210648FFF74CFE90
:10249000074B034A27210348FFF746FE38FC00108C
:1024A00020FD001054FC0010A0FC0010ECFC0010FB
:1024B00004FD0010074B9B68103080001950BFF3DB
:1024C0005F8FBFF35F8F044B0021196082F3108888
:1024D0007047C04600ED00E0240100D010B5091A95
:1024E00004394808090B05D14005400D044B184339
:1024F00080B210BD034B044A8C210448FFF714FE40
:1025000000E0FFFF2CFD001018FF00103CFD001044
:1025100010B5091A04394C08090B08D14905490DB1
:10252000064A11430180064B2343438010BD054BEF
:10253000054A94210548FFF7F7FDC04600F0FFFF6C
:1025400000F8FFFF2CFD001024FF00103CFD0010E0
:1025500001238340034A10681840431E9841C0B2CB
:102560007047C04600E100E0002904D0034B18602A
:10257000034B18607047034B1860FBE780E200E0F4
:1025800000E100E080E100E010B501238340180085
:10259000FFF7EAFF10BD0000024B9B68103080007F
:1025A000C058704700ED00E070B504000D00EFF377
:1025B000108672B60C4B1B68002BFBD0BFF35F8FED
:1025C0002000FFF7E9FF094B984201D0A84205D14E
:1025D000320029002000FFF76DFF70BD044B054A53
:1025E00070210548FFF7A0FD240100D0CD010010A7
:1025F00088FD0010FCFE00103CFD0010F0B5CE463A
:10260000474680B583B006000D00EFF3108872B620
:10261000574B1B68002BFBD0BFF35F8F554B9A685D
:1026200034001034A300D758534B9F4207D0AF4219
:1026300000D19BE00197514BFB1A2F2B09D9424641
:1026400039003000FFF736FF03B00CBC90469946C6
:10265000F0BD3000FFF77CFF814600213000FFF71E
:1026600093FFBFF35F8FFDF7FEFD002801D084428A
:1026700019D10123019C9C43230040495B1A5B4113
:1026800048495943090D49B20022A368AB4212D010
:102690000622A256002A0DDB53009B189B00220045
:1026A000364CE418F1E72021354B364AFF313648E5
:1026B000FFF73AFD2200AB4251D106256557002DA8
:1026C00039DB6B005B199A002C4B9B189A68A2604F
:1026D000DA79E27106229A56A2719B795BB2002BDD
:1026E00010DABD200002A0806B005B199B00234A1A
:1026F000D318264A11789971157049463000FFF7B2
:1027000043FF9CE7201D6B005B199B001B4A9B1835
:102710001A1D9B88D90A1C2907D159054915023170
:1027200049005118FFF7DAFEDDE7194B194A9A21E3
:102730001548FFF7F9FC00280CD1002A08D0FF2328
:102740009371154B9380114B1A78A2711970D4E7CD
:10275000094FF8E7201D1149FFF7DAFECDE7AA215E
:102760000F4B084A49000848FFF7DEFC024F66E7B6
:10277000240100D000ED00E0CD0100107011002018
:102780009CFE00104CFF00103CFD00107B1C002044
:1027900084FE00103CFF001000BDFFFFAA110020C6
:1027A000C0FE0010AAAA000010B5032304009C4339
:1027B000064A9446644422681840C000FC338340B3
:1027C0009A43130081400B43236010BD00E400E0F6
:1027D000F8B50400012606432D4BF31A2F2B28D8F9
:1027E000FDF741FD00282BD0EFF3108772B6294B7F
:1027F0001B68002BFBD0BFF35F8F2300244D5B1BB6
:102800005B412E4D5D432D0D6DB2234B9B688000C7
:102810001B58B3421BD00022032A32D853009B1806
:102820009B001B49CB189B795BB2AB421FD0013296
:10283000F2E77221194B1A4AFF311A48FFF774FC6C
:10284000BA21194B164A49001648FFF76DFC124B86
:102850009B68164A1A50164B1A78A2711D70BFF366
:102860005F8F0C4B00221A6087F31088F8BD0800B8
:102870005300991889004118FF268E710D4A8A80ED
:10288000E9E786210C4B064AFF310648FFF74CFC6E
:1028900070110020240100D000ED00E0C8FE0010FF
:1028A00060FF00103CFD0010F0FE0010CD01001094
:1028B0007B1C002000BDFFFF00FB0010AAAA000047
:1028C00010B500241F2C05D880212000FFF76CFFD5
:1028D0000134F7E710BD9A4200D288547047704720
:1028E00010B5002802D00B684968984710BD010058
:1028F00000200A681378303BDBB2092B08D883002C
:102900001B185B00501C08601078C0183038F0E7C6
:102910007047F0B5DE4657464E464546E0B583B0B3
:1029200093461F000C9B9A460D9C0E9B99460F9B4D
:102930009B0703D0B8460F00060022E00192A34691
:1029400088464E46B9460700B44207D2551C4B464E
:1029500041462020B84701342A00F5E73D004F46A4
:102960005C46019B9B46B1464646B84637002E0062
:1029700007E0013C551C5346185D43463900B047FB
:102980002A00002CF5D135003E0047460F9B9B07DF
:1029900007D4100003B03CBC90469946A246AB4613
:1029A000F0BDB0464E46B9462F005D46531BB342BC
:1029B000EFD2541C4B4641462020B8472200F5E791
:1029C000F0B5CE46474680B585B0944698460C9DF6
:1029D0000D9C0EAB1B789946109A119B129EB7075F
:1029E0001BD4002B08D0F70706D54F46002F02D185
:1029F0000C37374200D0013B944208D21F2C06D836
:102A000030272F550134F7E730272F550134F707CA
:102A100003D59C4201D21F2CF6D9F70615D57705B0
:102A200005D4002C03D0944224D09C4222D00F9A8B
:102A3000102A2BD00F9A102A30D00F9A022A35D0A4
:102A40001F2C02D830222A5501341F2C05D84A46A3
:102A5000002A31D02D222A55013403960293019485
:102A6000009543466246FFF754FF05B00CBC904604
:102A70009946F0BD621E012C06D00F9F102F01D089
:102A80001400D4E7023CD2E71400D0E7B206D1D458
:102A90001F2CCFD878222A550134D1E7B206CCD5E5
:102AA0001F2CCAD858222A550134C9E71F2CC7D871
:102AB00060322A550134C3E7720703D52B222A5509
:102AC0000134CAE73207C8D520222A550134C4E7A9
:102AD000F0B5DE4657464E464546E0B593B08146D2
:102AE0008A46089209931CAB10CB1B789B461E9D0F
:102AF000219B9846002C03D1102342469A439046CE
:102B00008023DB0046461E4042461A4212D0002C6B
:102B100022D000260EE03033D9B2771C0AAB99558B
:102B20002900200000F0ECFFAC4216D31F2F14D870
:102B30003E0004002900200000F0E2FFCBB2092B88
:102B4000E9D94246920605D54121C918C9B20A39C8
:102B5000C9B2E2E76121F8E7270043460693209BCC
:102B600005931F9B049303955B46029301970AAB61
:102B70000093099B089A51464846FFF721FF13B07E
:102B80003CBC90469946A246AB46F0BDF0B5DE4649
:102B900057464E464546E0B595B0089009910A92D1
:102BA0000B931E9E1F9C20AB1B789B46229B994635
:102BB000239D269B9A463300234303D1103352466C
:102BC0009A4392468023DB0057461F4052461A42E2
:102BD00019D0330023432DD0002714E03033DAB26C
:102BE0007B1C98460CABDA554A462B00300021007E
:102BF00000F0CCFFA5421FD819D043461F2B1BD88D
:102C0000474606000C004A462B003000210000F029
:102C1000BDFFD3B2092BE1D95246920605D5412218
:102C2000D218D2B20A3AD2B2DAE76122F8E7B14555
:102C3000E3D901E00023984653460693259B05936C
:102C4000249B04934B4603935B46029343460193B4
:102C50000CAB00930B9B0A9A09990898FFF7B0FEFA
:102C600015B03CBC90469946A246AB46F0BD00006C
:102C7000F0B5DE4657464E464546E0B591B0834630
:102C80008A460C9298461A9C08941B9D099522002E
:102C90002B002000290001F0F0F9002800D0E5E029
:102CA00001225242D34B2000290001F0E1F9002813
:102CB00000D0DBE001225242CF4B2000290001F07E
:102CC000C1F9002800D0D1E000220023089D28008F
:102CD000099E310001F0B6F9002800D0DDE0089827
:102CE0000999069007918023DB001E9A1A400D92E5
:102CF0001E9A1A4201D106231C93069807990400D4
:102D00000D000A000600024300D1CDE0080D400589
:102D1000400DBA4CA44660440A03120BB84B13434F
:102D20001F0001F0BDF9B74AB74B01F049F9B74AA6
:102D3000B74B01F033F904000D000022B54B300011
:102D4000390001F022F9B44AB44B01F039F902001C
:102D50000B002000290001F021F901F0B9F98146AA
:102D600001F09EF904000D00AD4AAE4B01F028F9C8
:102D70000022AD4B01F012F901F0AAF90600AB4AAE
:102D8000AB4B2000290001F01BF904000D003000BE
:102D900001F086F9A74AA84B01F012F902000B00D6
:102DA0002000290001F0F1F804000D0002000B00E2
:102DB00001F006F90A900B91A04BF31800261F05AD
:102DC00022002B002000290001F0E8F80E900F915E
:102DD00022002B0000208021C90501F0D6F8040054
:102DE0000D000022964B0A980B9901F0E0F80022A2
:102DF000944B01F0D3F802000B000A980B9901F0F4
:102E0000D6F80022904B01F0C9F802000B000A9896
:102E10000B9901F0CCF802000B002000290001F012
:102E2000BDF802000B000E980F9901F0C0F80022C7
:102E3000734B01F0B3F832003B0001F0C1F806001B
:102E40000F0004000D00069A079B01F011F90028FD
:102E50002CD001235B429C46E1440022794B300098
:102E6000390001F0A4F804000D001FE01E9B04933C
:102E70001D9B03931C9B0293089A099B009201934C
:102E800043460C9A5146584600F0F8F811B03CBC45
:102E900090469946A246AB46F0BD069580231B0698
:102EA0009C46664407961EE7002399464B466333CB
:102EB000C62B1FD804261E9B1B0527D52B0023439A
:102EC00010D0624A624B0698079901F0C9F80028B1
:102ED00000D183E000225F4B0698079901F0B2F819
:102EE00000287BD01C9B4B4506DD4A46981A431EA2
:102EF0001C9303E00526DEE700231C938023DB0000
:102F00001E9A1A431E920026002399461D9B9E423C
:102F10006ED29F1B02231E9A1A400A921E9A1342D7
:102F200002D0002E00D000274B46002B07D02200F5
:102F30002B000698079901F03AF8069007910022B5
:102F400000230898099901F07DF8002800D085E059
:102F5000414B1E9A1340049303971C9B0293069BBC
:102F6000079C0093019443460C9A5146584600F042
:102F700085F8002E00D189E71E9B9B067AD5452552
:102F8000441C4346020051462800D8474B46DA17F6
:102F90009B18534005220592013E0496002203929D
:102FA0000A3202924A46D00F019000934346220013
:102FB00051465846FFF78CFD0A9B002B00D165E770
:102FC00002005F460C9E1D9D931BAB4254D2541CC5
:102FD000434651462020B8472200F5E71C9B002BB2
:102FE00094D00D9B002B91D01C9B013B1C938DE733
:102FF00000278FE7FFFFEF7FFFFFEFFF01FCFFFFE1
:103000000000F03FFB799F501344D33FB3C8608B5F
:10301000288AC63F0000F83F61436F63A787D23F0D
:1030200071A379094F930A400000E03F1655B5BBE4
:10303000B16B0240EF39FAFE422EE63FFF0300007B
:1030400000002C4000002440000018402D431CEBE1
:10305000E2361A3F80842E41FFF7FFFF069C079D52
:103060002200290080200006844661440B0006925D
:1030700007936DE7652583E7100007E7F0B5DE46A7
:1030800057464E464546E0B595B0069007919346A3
:103090009946209F1E9A1F9B1000190000F0EDFF1B
:1030A000002831D101225242BF4B1E981F9900F0D7
:1030B000C9FF002837D101225242BC4B1E981F99EC
:1030C00000F0D6FF00283DD10022B94B1E981F9971
:1030D00000F0CEFF002850D10022B64B1E981F9959
:1030E00000F0B0FF002848D1002200231E981F994D
:1030F00000F0A8FF002850D100239846229B5B05D2
:1031000000D4B6E0002458E0229B0393219B029355
:1031100003230193A84B00934B465A460799069800
:10312000FFF7F7FB0EE1229B0393219B02930423FD
:103130000193A24B00934B465A4607990698FFF716
:10314000E8FBFFE00423229A1A4022990B4210D098
:103150009B4B002A0FD004222299039121990291BE
:10316000019200934B465A4607990698FFF7D1FB08
:10317000E8E0944BEDE70322EEE7229B0493219BCA
:10318000039302971E9B1F9C009301944B465A4643
:1031900007990698FFF76CFDD4E01E9A1F9B00204C
:1031A000002100F0F2FE1E901F9101239846A5E732
:1031B0000CAB30221A55013F01341F2C01D8092FC6
:1031C000F6D81E981F9900F083FF050000F068FFF5
:1031D00002000B001E981F9900F0D7FEFA007A4BF0
:1031E0009B181A685B680A920B9300F0E9FE08903E
:1031F000099100F091FF060000F04EFF02000B0065
:103200000898099900F0C1FE0890099100226F4BBF
:1032100000F02EFF00282ED00136300000F03CFFD9
:1032200002000B000A980B9900F012FF002801D051
:1032300001350026002F2CD1280000F031FF0200BC
:103240000B001E981F9900F0A0FE06000F00002240
:103250005E4B00F0F7FE002842D100225B4B3000AD
:10326000390000F005FF00283AD1EB0738D50135C9
:1032700036E0062746E70022544B0898099900F0EB
:10328000E1FE0028D6D1002E01D0F307D2D50136B9
:10329000D0E7AA461F2C11D8013F0A21300000F0C8
:1032A0002FFC651C30310CAB19550A21300000F0A1
:1032B00027FC092E26D906002C00EBE7554604E032
:1032C0000CAA302111551F0001341F2C02D87B1E7F
:1032D000002FF5D11F2C03D80CAB2E221A55013428
:1032E0001F2C14D80A21280000F0DEFB661C3031A8
:1032F0000CAB19550A21280000F0D6FB051E05D09D
:103300003400EDE72B0055461C00DEE734000323B4
:10331000229A1340012B1CD01F2C06D84346002BA9
:1033200032D00CAB2D221A550134229B0393219BE2
:10333000029301940CAB00934B465A4607990698AA
:10334000FFF7E7FA15B03CBC90469946A246AB465B
:10335000F0BD219B002B13D04346002B02D10C3330
:1033600013420FD0219B013B2193190003E00CABCA
:1033700030221A5501348C42CED21F2CF7D9CBE71C
:103380002199F8E72199F6E7229B5B0704D50CAB5E
:103390002B221A550134C8E7229B1B07C5D50CAB5D
:1033A00020221A550134C0E7FFFFEFFFFFFFEF7F38
:1033B00065CDCD4165CDCDC188FF00108CFF0010DB
:1033C00080FF00107CFF0010780101100000E03F3A
:1033D000F0B5DE4657464E464546E0B593B08246C8
:1033E0008B4690461193002900D1ECE20027554608
:1033F000119B1878002800D1E8E2252809D07C1C10
:1034000043463A005946A847119B013311932700C0
:10341000EEE70133119300241DE00B00303BDBB2DB
:10342000092B37D92A293AD000230A93119B1A78FD
:103430002E2A44D000239A46119A1378683BD9B2B9
:10344000122900D980E08B00CB49CB589F4601233D
:103450001C4301321192119A11780B00203BD8B213
:103460001028DAD88300C548C3589F4602231C435E
:1034700001321192EFE704231C4301321192EAE773
:1034800008231C4301321192E5E710231C4301324B
:103490001192E0E711A8FFF72AFA0A90C6E71C9BF1
:1034A0001A1D1C921868002804DB0A90119B013336
:1034B0001193BBE702231C4343420A93F6E78022A1
:1034C000D20014435A1C11925A781300303BDBB2DD
:1034D000092B04D92A2A07D000239A46ACE711A861
:1034E000FFF705FA8246A7E71C9B1A1D1C92186875
:1034F000002804DB8246119B013311939CE70020D6
:10350000F8E780235B002343511C119152786C2A09
:1035100001D01C0018E0C0239B001C430131119115
:1035200012E080232343511C11915278682A01D064
:103530001C0009E0C0231C430131119104E08023E9
:103540005B001C4301321192119B18780300253B4C
:10355000DAB2532A00D92CE29300894AD3589F4605
:1035600080239B001C4301321192EDE780235B0016
:103570001C4301321192E7E7782809D0582838D047
:103580006F2838D0622838D010239C430A2600E0E8
:103590001026582833D0692803D0642801D00C2283
:1035A0009443630501D50122944369282AD06428F5
:1035B00028D0A30500D59FE0E30500D5B8E0630659
:1035C00000D4CAE01C9A111D1C911168FF220A4008
:1035D00005940A9B04935346039302960023019398
:1035E000009243463A0059462800FFF771FA070057
:1035F00027E01026CDE70826CBE70226C9E72022E0
:103600001443C8E7A30520D4E30550D4630666D568
:103610001C9A111D1C911168FF220A40D317D11862
:10362000594005940A9B0493534603930296D20F84
:103630000192009143463A0059462800FFF748FAA4
:103640000700119B01331193D2E61C9BDA1D072161
:103650008A43110008311C91116853689C46DB179E
:103660000C930D930C9A0D9B100048400E906246EF
:1036700053400F930E980F990C9A0D9B801A994105
:103680000E900F9108940A9B079353460693049655
:10369000002305936346DA0F02920090019143469E
:1036A0003A0059462800FFF771FA0700C9E71C9A4B
:1036B000111D1C911268D317D118594005940A9B0B
:1036C0000493534603930296D20F0192009143460E
:1036D0003A0059462800FFF7FBF90700B1E7230637
:1036E00005D51C9A111D1C910023D25E96E71C9AE9
:1036F000111D1C91126891E71C9BDA1D07218A435A
:10370000110008311C9108940A9B079353460693B5
:103710000496002305930293136854680093019460
:1037200043463A0059462800FFF730FA070088E779
:103730001C9A111D1C9105940A9B049353460393F4
:103740000296002301931368009343463A005946BA
:103750002800FFF7BDF9070073E7230606D51C9A7A
:10376000111D1C9112681204120C31E71C9A111DD4
:103770001C9112682CE7C04694FF0010E0FF001077
:103780002400011046281AD01C9B073307229343BC
:103790001A0008321C9204940A9A0392524602922A
:1037A0005C681B680093019443463A005946280020
:1037B000FFF764FC0700119B0133119318E62023E7
:1037C0001C43E1E7672801D0472802D180231B0171
:1037D0001C43452801D0472801D120231C431C9BB2
:1037E0000733072293431A0008321C9204940A9A62
:1037F0000392524602925C681B6800930194434610
:103800003A0059462800FFF733FA0700119B0133AD
:103810001193EDE502231A002240924623421FD065
:1038200001241C9B1A1D1C927A1C91461878434651
:103830003A005946A8475346002B16D1119B013335
:1038400011934F46D4E5561C434659462020B847AD
:10385000230032005C1C9D42F5D83D001700E0E7D4
:1038600001233A002F000A9DF4E74A46A9460A9D23
:1038700006E0571C434659462020C84734003A000A
:10388000661CA542F5D84D469146D7E71C9B1A1DEC
:103890001C921B6899465346002B00D1013B4E46B3
:1038A00001E0013613003278002A02D05A1E002BA4
:1038B000F7D14B46F21A10928023DB0026001E40FF
:1038C0001C4203D0524501D95346109302231A00DB
:1038D00022400B92234205D03A0037004C46A946BD
:1038E000554620E03A00109B5F46B3462E0006E0A6
:1038F000551C434639002020B04723002A005C1C99
:103900000A999942F4D835005E46BB4610943700B8
:103910004C46A946554606E01D000134561C434658
:103920005946C84732002078002804D0002FF4D030
:103930006B1E002DF0D117004D460B9B002B03D1C1
:10394000119B0133119353E50A9F109B06E0561C0F
:10395000434659462020A847230032005C1C9F4262
:10396000F5D81700ECE721231C431C9B1A1D1C9261
:103970001B68009305940823049353460393102374
:1039800002930023019343463A0059462800FFF76B
:103990009FF80700119B0133119329E57C1C4346D6
:1039A0003A0059462520A847119B0133119327005F
:1039B0001EE57C1C43463A005946A847119B01333B
:1039C0001193270014E50B4B9A460FE5AA4647458D
:1039D0000DD343465A1E434659460020D04738006F
:1039E00013B03CBC90469946A246AB46F0BD3A00A7
:1039F000F1E7C046DF2800100EB410B585B0010015
:103A000007AC08CC03940122009452420348FFF70C
:103A1000DFFC05B010BC08BC03B01847D728001065
:103A200000B585B0029003910121009313004A4232
:103A300002A90248FFF7CCFC05B000BDE128001048
:103A400001480421014B1847C0110020713A0010B1
:103A500010B5010018231B8814221088984710BD48
:103A600010B5010018231B8816221088984710BD36
:103A7000F0B5C64600B507000E00002501239846A4
:103A800000E00135B5420AD2AC003C192068FFF7CE
:103A9000DFFF20600028F4D100239846F1E740467C
:103AA00004BC9046F0BD0000144A936F9B0815D2E9
:103AB0009066D166002905D0FFE7FFE7FFE7516F69
:103AC000106F704704B580210906C21751400028C5
:103AD00000D0C8430BF0F4FC002104BD936F5B08D9
:103AE000FDD3F0B5946ED56E576F166FFFF7E0FFFC
:103AF0009466D56657671667F0BD0000000000D0D9
:103B0000134A936F9B0813D210665166002905D0A3
:103B1000FFE7FFE7FFE7516F106F704704B500281C
:103B200001D00020C0430BF0CBFC002104BDC046F7
:103B3000936F5B08FDD3F0B5946ED56E576F166F1B
:103B4000FFF7E2FF9466D56657671667F0BD000081
:103B5000000000D094464E4A926F9208624601D20D
:103B600030E0C046F0B54A4EB56F6D08FCD3346EF8
:103B7000756E776F366F00F025F89446444A1466E8
:103B80005566576716676246F0BDC0469446404A80
:103B9000926F9208624601D258E0C046F0B53C4EA2
:103BA000B56F6D08FCD3346E756E776F366F00F0AD
:103BB0004DF89446364A146655665767166762464E
:103BC000F0BDC046002B24DB11D000293EDA00B541
:103BD000C943404200D1013100F038F8C9434042A6
:103BE00000D10131DB43524200D1013300BD002A34
:103BF000EBD1002801D1002905D00020C90FC90749
:103C000001D1C043410800B50BF032FC0022002373
:103C100000BD00B500290ADBDB43524200D101336D
:103C200000F014F8C943404200D1013100BDC9433E
:103C3000404200D10131DB43524200D1013300F058
:103C400005F8DB43524200D1013300BD002923D1E6
:103C5000002B18D1002A0CD0BC460D4F38667A666E
:103C600000210023FFE7FFE7FFE77A6F386F674621
:103C70007047002801D00748010000B50BF0F8FBA1
:103C80000022002300BD02000B000020002170472D
:103C9000000000D0FFFFFFFF002B00D0BDE0130CA1
:103CA00026D1002AE7D080B4104F39667A66FFE744
:103CB000FFE730B4040C7B6F396F1B0423433B6672
:103CC000FFE7FFE7FFE7C04684B27B6F3D6F1B0451
:103CD00023433B66FFE7FFE7C04600232C042D0C7F
:103CE0007A6F386F00196941B0BC7047000000D08E
:103CF000F0B594460025140E01D112020835140FB8
:103D000001D112010435940F01D192000235D40F74
:103D100001D152000135D40B0134254F7C66254C6E
:103D20003C660E0C93B2FFE7FFE7FFE73C6F66438C
:103D3000360C7703BE467343DF0B5B04C01AB941F0
:103D4000130C7343DB18C91ACE086643360CB6440D
:103D500093B273431F0F1B01C01AB941130C734375
:103D60001F0B1B05C01AB941860D8F023E436643E7
:103D7000360C092D24DB520A7243801A7703460A57
:103D80006643360C16235B1BDE40DF40BF196446DA
:103D90006643821B7046043506330100D940A840B3
:103DA000C01900D30131A24206D20023F0BD0000A9
:103DB000000000D0FFFFFFFF121B0130F3D3F1E73B
:103DC00009277F1BFE406446A2B27243801A00D2CC
:103DD0000139220C7243130C1204821A99410B0010
:103DE0007046043513370100F940A840801900D30C
:103DF0000131002B02D1A2420AD2F0BD013000D322
:103E00000131121BFAD2013BF8D1A24200D2F0BD1F
:103E1000013000D30131121BF7E7F0B51C0C00D0C4
:103E200080E00CB400251C0A04D11B02160E33439B
:103E3000120208351C0B04D11B01160F334312016B
:103E400004359C0B04D19B00960F3343920002353E
:103E5000DC0B02D192185B4101351C0097186441BC
:103E60000134464F7C66464C3C660E0CFFE7FFE78C
:103E7000FFE7C0463C6F6643360C7703BE4697B2F9
:103E80007743C01B00D20139C01B00D201399FB259
:103E90007743C91BC91B170C77437E04FF0B801B9C
:103EA000B941CE086643360C0C2D33DBB644120BF9
:103EB0001F053A431B0B97B27743C01B00D2013951
:103EC0009FB27743C91B170C77433E043F0C801BFE
:103ED000B941860D8F023E43664329277F1BFE4072
:103EE0000C3D7746AF40BF1930BCA2B2ABB27243B3
:103EF0007343801A9941220C7243130C1204801AE6
:103F0000994102000B000137001BA941F9D2781E2C
:103F10000021F0BD0C277F1BFE4077467F0BAF4092
:103F2000FF19E0E700245D1C07D0144F7D66396659
:103F3000FFE7FFE7FFE7FFE73C6F95B29EB26543FF
:103F40006643401BB141150C1E0C654366433604A5
:103F50002F0C3E432D04401BB141994204D2020074
:103F60000B0020000021F0BD01D19042F7D3801A50
:103F7000994101349942F2D3F6E70000000000D0E5
:103F8000FFFFFFFF48404140484018B4114B5B68B9
:103F9000FC46019308BD04DF1F42001018B40D4B0E
:103FA0001B68FC46019308BD00DF2942001018B4CD
:103FB000084BDB68FC46019308BD0CDFE1440010B0
:103FC00018B4044B9B68FC46019308BD08DF854389
:103FD00000100000841C0020FFB5504042405040BB
:103FE00059404B40594000E0FFB5154F4C00640D5F
:103FF00003D0BC4204D10C0314D80020090D0905DC
:104000005C00640D03D0BC4204D11C030AD800221A
:104010001B0D1B0501264B4009D44B4003D58B4299
:1040200000D18242FFBD9942FCD19042FFBD0B43BB
:10403000DB1803431343F5D0C9434918FFBD000003
:10404000FF07000000B5FFF7CFFF804100BDC0466D
:1040500000B5FFF7C9FF01D9002000BD012000BD58
:1040600000B5FFF7B9FF01D9002000BD012000BD58
:1040700000B5FFF7B1FF804100BD012040054A00B7
:10408000121804D85A00121801D8002070470120D5
:1040900070470020704700000021002805D17047BC
:1040A000C1174840401AFAD0C90713B5064B1B6820
:1040B00098470CBC441CA2401005120B0349091B75
:1040C00009051943114310BD841E00201F04000080
:1040D00010B54C00620D8023D218DB00D21A5B05AC
:1040E0007E2A10DD9E3A13DACC17090349081943DA
:1040F0005242D140640001341532202A05DAD04002
:104100000843604310BD002010BD0846604310BD49
:10411000C80FC018013810BD18B4044B5B6AFC46C8
:10412000019308BD24DF0D4700100000841C00200F
:1041300070B513231C78012C07D0012C0EDC022C47
:1041400002DC1C4A1C4B9A6470BD00231F2BF4D860
:1041500099001848184A88500133F7E71748FFF7C5
:104160007FFC05001648FFF77BFC023803789B00B4
:104170007F2B19DD802229000F4800F0D5FC022C8E
:10418000DDD1104B1A88B5231B029A4209D10E4B80
:104190001A880E4B9A4204D10D4B1A880D4B9A4245
:1041A000CDD00020FDF7DEFF0B4B0C4A30210C4830
:1041B000FDF7BAFFE5410010841C002053440000C5
:1041C0005346000054380000D8380000494600002B
:1041D0009C38000059460000C801011080020110FF
:1041E0002802011007B56046002800D100BE0188F2
:1041F0000A0A0230DF2AFAD1C9B2820804D302883F
:1042000040880004104300E00068024A50500390C8
:1042100007BD0000841C00200FB403BC0CBCF0B52B
:104220000124E407634000E0F0B50C0DCF0F661EDB
:104230003605891B640503D3C943404200D30131CD
:10424000640D03D0661CF60A07D0E41B00207F0033
:10425000791C89078912803C24031D0DDF0F6E1E17
:1042600036059B1B6D0503D3DB43524200D301335C
:104270006D0D03D06E1CF60A07D0ED1B00227F00E7
:104280007B1C9B079B12803D2D032F1B661B58D464
:10429000A446202E46DA20371400BC401D00BD4045
:1042A000F24033412A4380185941CB0F05D0C9430E
:1042B000C043002264425041514162464D0D28D115
:1042C0000D0D07D100281FD0241940414941013A62
:1042D0000D0DF9D0640006D3013000D30131002C5C
:1042E00001D140084000013A0BD4941CE40A04D1E7
:1042F00012051144DB071944F0BDD907204B1943BF
:1043000000E0D9070020F0BD0029DDD1002CDBD171
:10431000F0BD0132C6074008CD0728434908002EEA
:10432000E1D0D9E73C2E29DA203E40371400BC40CA
:1043300000D00124F24014431A00BB401C43D317A1
:10434000ACE7AC46202F08DA20360400B4400D005C
:10435000B540F84039412843A5E73C2F0CDA203F0F
:1043600040360400B44000D00124F8400443080063
:10437000B1400C43C117EAE710001900002494E78C
:104380000000F07FF0B50C0D661E3605891BE60AAD
:104390006405640D02D0651CED0A04D000200121E3
:1043A0000905803C2403A4461C0D671E3F05DB1B4A
:1043B000E70A6405640D02D0651CED0A04D00022F2
:1043C00001231B05803C24037740644497B484B2E6
:1043D00096B27443070C7E43150C6F4380B268435A
:1043E000361802D3012000043F183004350C0019A0
:1043F0007D41844688B29AB250430C0C62431F0C34
:104400007C438EB27E43921902D301263604A4194E
:104410001604170C3618674101BC81B29AB2514399
:10442000040C62431B0C5C4380B25843121802D345
:104430000120000424181004130C401863412D18A7
:104440005E410020474106BC88B293B258430C0C31
:104450006343120C544389B251435B1802D30121C8
:104460000904641819041A0C091862416D185641A0
:104470000020474118BCF902720D1143F0026A0D89
:104480001043ED020A0D03D16D1940414941013B32
:10449000124E9B1B7600B3420ED26D0007D3013043
:1044A000002671416646354301D1400840001B0596
:1044B000C918E4072144F0BD0BDA013306D10130FD
:1044C00004D101314F0D01D04908F2E7E107002086
:1044D000F0BD013631050020EBE70000FF030000CE
:1044E000F0B51C0D671E3F05DB1BE70A6405640D74
:1044F00002D0661CF60A04D0002201231B05803C72
:104500002403D0252D060026F6432E661E096E666E
:10451000CE0FF619B44649004F0D02D07E1CF60AA4
:1045200003D000200021403F3F033E1BB600B444AF
:10453000013F7F05C91B49082E6F013676089C0292
:10454000950D25437543ED137543AD1301356D107E
:10455000F603761B0CB4CC02450D2C43A2B2B3B2C9
:104560005A43270C7B43350C6F43A4B26C431B1991
:1045700002D3012424043F191C041D0CA4187D41FE
:1045800024196D41009A91B2ACB26143170C7C437F
:104590002B0C5F4392B25A43A41802D30122120497
:1045A000BF182204230C52187B41019C6C431B1939
:1045B000520ED9010A434401A01A81B2B2B251434A
:1045C00003145A43360C734387B27743D617D21974
:1045D00000277E4136049B191704160C7F185E4194
:1045E0007316ED18F301002680337541A90F06D12B
:1045F0006400690AE8055B0A184309D22FE0042227
:10460000944480337541A90AA8059B0A184326D310
:10461000404149412404009A019B0D005543641B0D
:104620004343E41A95B286B27543170C7E43030CDC
:104630005F4392B25A43B61802D301221204BF1844
:104640003204330C52197B4152429C41002C02D45B
:104650000022013051414008CA071043490802B006
:104660006246D7079210084BD218084B9A4203D2E1
:1046700012058918C919F0BD0020002A01DC390093
:10468000F0BD01331905F5E7FD030000FE0700004A
:10469000624618CA944600291ADAC01861415B467E
:1046A0003B415C46B4405246FA40224344464D46A4
:1046B00062416B41904699462B46B3403D41FC40D8
:1046C0001C4352465B46A241AB4192469B46704713
:1046D000C01AA1414B463B414C46B4404246FA40C9
:1046E000224354465D4662416B4192469B462B46AF
:1046F000B3403D41FC401C4342464B46A241AB41C6
:10470000904699467047002000217047002200B56E
:10471000203200F004F8080000BD000000220B1554
:10472000F1D410B5944600F02FF81414013400DAD7
:104730000021CB17134C20476244343A0CD40C2A86
:1047400007DA04009140904052422032D440214385
:1047500010BDD843D94310BD203207D40C46944035
:10476000524220321141D040204310BD0800C917E9
:10477000203203D452422032104110BD18001900DB
:1047800010BD0000394700100A0DCC0F531E1B0549
:10479000C91A520503D3C943404200D30131520D17
:1047A00003D0531CDB0A07D0121B00206400611CDD
:1047B00089078912803A1203014BD21A7047000010
:1047C000FF03000051434343C9188C46110C83B2C8
:1047D0004B4310B4040C614392B280B25043624325
:1047E0001C041B0C001910BC59411304120CC018F6
:1047F0005141614470470000484041404840002317
:104800009C46094B5B68184700239C46064B1B6877
:10481000184700239C46044BDB68184700239C463E
:10482000014B9B6818470000841D002007B54840D5
:104830004140484001E0C04607B54200120E03D097
:10484000FF2A03D1420218D8C00DC0054A00120E3B
:1048500003D0FF2A03D14A020FD8C90DC90501228E
:10486000414005D4414001D5814207BD884207BD82
:104870000143491801D0C043001807BD00B5FFF738
:10488000DBFF804100BDC04600B5FFF7CFFF804190
:1048900000BD491A002807D108467047C10FC90753
:1048A00000D54042002817D0F44603B40B4B1B68D8
:1048B000984706BC81409E384042803107D20B06A3
:1048C00007D04900490AC00510430843604701303A
:1048D000F8E7490A8902F5E770470000841E0020C6
:1048E00041000A0E80231B067E2A0BDD9E3A0BDA5E
:1048F000C1174002400818435242D04049000131DC
:104900004843704700207047C00FC01801387047F7
:10491000C0420DD300B540004008002100F012F85D
:10492000002801D4404200BD8020000600BD0000E8
:10493000034BDB69FC4618471CDF994A0010000056
:10494000841D002000239C46014B5B6A1847000031
:10495000841D0020034BDB6FFC4618477CDFB14A07
:1049600000100000841D002070B513231D782A4814
:10497000FFF776F80400012D11D0012D09DDA31EEB
:104980001B789B007F2B40DD80222100234800F014
:10499000CBF82348FFF75CF8224B186070BD542217
:1049A00001001E4800F0C0F81F4B1A881F4B9A42A6
:1049B0001CD1A7239B011A881D4B9A4216D11D4B6F
:1049C0001A881D4B9A4211D11C4B1A8894239B01C3
:1049D0009A420BD11A4B1A881A4B9A4206D11A4B9B
:1049E0001A681A4B9A4201D1152307E01848FDF7BF
:1049F000B9FB99001748094A885001331F2BF8D991
:104A0000144A064B1A62DA61B7E7134B134A422184
:104A10001348FDF789FBC04653460000841D002063
:104A20004C330000841E0020EE290000C40F00005B
:104A3000C20D0000962B0000C0B50000182B00002E
:104A4000CC2A000010B50000FC2C000051ED87645A
:104A500080FB0010654A0010940201101C03011035
:104A6000C802011007B56046002800D100BE0188C9
:104A70000A0A0230DF2AFAD1C9B2820804D30288B6
:104A800040880004104300E00068024A5050039040
:104A900007BD0000841D00200021C2158032803235
:104AA00001D0024A1047002070470000CD2A0000C4
:104AB000C30FDB0741000A0E07D0FF2A08D00909FF
:104AC000054A8918194340077047190000207047AC
:104AD0000249C918FAE70000000000380000F07F22
:104AE00010B5040009F05AF8002804D00419034B4B
:104AF0009C4200D810BD0248FDF734FB00000420A2
:104B00003003011010B509F053F810BD014804211D
:104B1000014B1847D0110020713A0010014B1B685F
:104B200018470000D0110020014B5B6818470000B7
:104B3000D0110020F8B507000D001600437C002BB3
:104B400002D0002400200CE00368110028009847E0
:104B50002DE03B7C10E0022115483B689847601C23
:104B60000134B44214DA002CF3DD2B19013B1B781D
:104B70000D3B5A425341DBB22A5D0A2AF0D1002B89
:104B8000EED1A042E7DA211A28183B689847E2E7FD
:104B9000B04203DA311A28183B689847002E06DD28
:104BA000AD19013D2B780D3B5A4253413B74F8BD82
:104BB000B8030110F0B583B007000E000092019316
:104BC00024E0A368002B04D0310038009847002867
:104BD00023DCE468002C06D0114B1D68002DF0D0BA
:104BE000A542F6D1EDE70099019A0E4B5B6A9A4215
:104BF00009D80C48806A88420BD29A4201D001231E
:104C000002E0002300E00023002B04D1064B1C68C7
:104C1000E0E70123F8E70120404203B0F0BDC046C1
:104C20004C1C002000400540481C002070B50500C9
:104C30000368002B16D00C4B1C6805E0290004C942
:104C40002000FFF777FFE468002C09D02368002BD1
:104C5000F9D0064B1B68002BF0D0A342F3D1EDE74F
:104C600000232B6070BDC046481C00204C1C002057
:104C700070B505000C000B68802B05D021684B1C1B
:104C800023606418257170BD0800FFF7CFFFF5E7BA
:104C900010B582B0D0231B061C6801A906480AF093
:104CA0001FFC002806D1019BA34203D002480AF052
:104CB00047FC012002B010BD381A002010B5024890
:104CC0000AF0CEFB10BDC046381A0020F0B5C6462B
:104CD00000B582B006000D001700FFF7D9FF80462F
:104CE0006B1C02D0184B1C680DE0300009F0CAFDA7
:104CF0000500F7E76B46D91D0A230B70012220003F
:104D0000FFF718FFE468002C10D02368002BF9D0BF
:104D10000E4B1B68002B01D0A342F3D12A003100B7
:104D20002000FFF707FF002FECD0E3E74346002BFE
:104D300006D1681E8541E8B202B004BC9046F0BDC1
:104D4000FFF7BCFFF5E7C046481C00204C1C0020C4
:104D500010B5030008001100002B05D1044B1A68A0
:104D60005B68FFF727FF10BD01204042FBE7C0460C
:104D700018F9001010B50B001400012806D100220C
:104D800021001800FFF7A2FF200010BD01204042C3
:104D9000FBE700000C4B1A681300002B0BD083427A
:104DA00002D01A00DB68F8E7002903D1DB68D36082
:104DB0000023C36070470029FCD0002A01D0D060D6
:104DC000F8E7014B1860F5E7481C002010B5064BCA
:104DD0001C6800E0E468002C04D06368002BF9D064
:104DE0009847F7E710BDC046481C002070B5050085
:104DF00009F048FD0400012201002800FFF766FFCA
:104E0000FFF7E4FF200070BD70B5A2B004000E00F3
:104E1000FFF73EFF05008422002101A8FFF77EFE78
:104E20003300220001A90848FEF7FAFD040001A89A
:104E3000FFF7FCFEFFF7CAFF002D02D1200022B0D1
:104E400070BDFFF73BFFF9E7714C00100FB400B5E0
:104E500083B004A901C90191FFF7D6FF03B008BCD4
:104E600004B0184710B500F083F810BDF0B583B05A
:104E700000251AE06B4607330D241C70002403E064
:104E80001F78176001340133002C1CD19769BF06CD
:104E9000FCD4F5E71E78166001340133002C03D1F1
:104EA0009669B606FCD4F5E701358D4210DA094B58
:104EB0001A68465D084BD3185C4263415B00074C9F
:104EC0001B5FB342D6D06B4607331E700024E5E764
:104ED00003B0F0BD741C00200080FCBF801C0020CB
:104EE000F0B583B0070000200DE09369DB06FCD429
:104EF00013682B7001340135002CF6D06B46073354
:104F00001B780370300088420CDA094B1A689369E9
:104F100010252C001C401D4204D1461C38186B463D
:104F2000DD1DE9E7002801D003B0F0BD0338FBE741
:104F3000741C002070B515001C000B4B1860FCF7AA
:104F40001BF8002D06DA002C09DA01210748FFF7CB
:104F500021FF70BD02212800FBF7ECFEF3E70221E0
:104F60002000FBF7E7FEF0E7741C0020E0110020B2
:104F700010B5064B1B78064B1B78E121012300225C
:104F800049020448FFF7D6FF10BDC0466C2401104B
:104F900070240110004003400523CB56002B01DB99
:104FA000934211D1094B9C466044434258418000D2
:104FB000074BC058097901238B40013B93401840AF
:104FC00043425841C0B270470020FCE70000D0AF18
:104FD000C81B002070B50A791F2A19D8174B9C46A8
:104FE0006044434258418000154BC458012393400C
:104FF000013B497949B2002910DB08002025AA1A93
:10500000914218DC8B401C4201D00120404270BD0F
:105010000C4B0D4A39210D48FDF786F82020801AE7
:10502000002805DB1A0082401442F0D00138F7E76F
:1050300001204042EBE701204042E8E70000D0AF0A
:10504000C81B0020FC030110A80401102404011057
:1050500070B505000C001600FFF79EFF002801D078
:10506000002107E01548FDF77DF88B1912339B00EE
:105070005A51013123798B420FD923786278120279
:105080001A43A3781B041A43E3781B0613434A0010
:105090009A5A530BE9D19219E7E701229A4013007B
:1050A000013B074A9446654468424541B340054A7E
:1050B000AD00A9580B43AB5070BDC0467004011041
:1050C0000000D0AFC81B002010B582B00A4B9C4630
:1050D000604444424441A400E31C084A0092220078
:1050E0000748FBF7AEFE844202DC001B02B010BD95
:1050F00001204042FAE7C0460000D0AF840401100E
:105100007A1C0020F8B505000E00FBF769FE0700C9
:1051100031002800FFF75EFF041E09DB02003100AA
:105120002800FFF795FF3800FBF766FE2000F8BD6A
:105130000148FDF717F8C04670040110F0B505AC42
:1051400025784C006418E4000419DC342468A44673
:10515000002D16D01F26052B15D95401A0256D054D
:1051600025434C006418E40004192700DC373D6037
:105170000D4D3543D8342560053B05321F242240B0
:10518000E9E70026E7E79B0652011A434C00631843
:10519000DB00C3181D00DC352A60034A1643D833F0
:1051A0001E6063462B60F0BD80E00000F0B504682F
:1051B00001258D40AC430460002B34D04C006418B2
:1051C000E40004192500C8351E682E6004355E68A9
:1051D0002E6004359E682E60DB68DC3423604C0052
:1051E0006318DB00D033C31880256D012B43802565
:1051F0002D061D601D60164B8B40836005680E1DDB
:1052000001231F00B7403D43056005680E000836C6
:10521000B3402B4303601F231A406118C900401894
:10522000D8300260F0BD4B005B18DB00C3181C00D7
:10523000C83480256D0225600434F8256D02256090
:105240000434C0252D032560DC3300241C60C6E730
:10525000010101010123084A1360084A1360084B49
:105260009A6801239343FAD1064B01221A60054B39
:105270001B68DB05FBD5704700E0004000F00040F4
:1052800000C0004000C0044010B500F001F810BD9F
:1052900010B5FFF737FC10BDF0B5D6464F46464671
:1052A0008A46C0B5502825D00F2404400C2C00D9C4
:1052B00073E03B4DA4002C59A746557814782D0275
:1052C0002543947824042543D47824062C43151DC3
:1052D000002C08D070260640102E00D1924640B215
:1052E0005444002819DB28001C601CBC90469946D9
:1052F000A246F0BD032103328A43150010CDF2E728
:10530000557814782D022543947824042543D478C5
:1053100024062C4315000835DAE72468E3E75478BF
:10532000157824022C43951CD2E754781578240272
:105330002C4324042414951CCAE77F211600002462
:10534000002789463178751C4E460E40BE408C467B
:1053500049B2344307372E000029F3DB1F2FB7D89B
:1053600061464906B4D50126BE4076423443B1E7D2
:1053700000218C467F311700002488463E787D1C32
:105380004746614637408F400721894676B23C4305
:10539000CC442F00002EF1DB9AE708F079F9C046E3
:1053A000C804011010B5FF2815D070230340202B2E
:1053B00017D009D9402B10D0502B0CD0302B08D14E
:1053C00008000AF075F810BD0020002BFBD0102B50
:1053D000F9D008F05DF90020F5E708000AF090F830
:1053E000F1E708000AF034F8EDE7C046F8B506002A
:1053F0000F0014000020002E02D030000AF080F8C8
:1054000020607D1C3F78FF2F2BD160602B78681CBB
:105410002375FF2B35D010230200002500217F26A5
:105420002375137832001A408A4001305BB215436D
:1054300007310200002BF4DB4519E560002500214F
:105440007F260378013063753200037801301A40FB
:105450008A405BB215430731002BF5DB4519256106
:10546000F8BD31003800FFF79DFF231D01002A0021
:105470003800FFF711FF05002B78681C2375FF2B00
:10548000C9D10023E360D9E7F0B557464E46DE4662
:1054900045460023E0B595B00A9303338A4691460A
:1054A0000340012B00D1A5E0002B00D08DE00307C5
:1054B00000D58DE001230EAE039353460E930023D7
:1054C0000C2200210096484609F0DAFF48460AF00F
:1054D0003FF80490002800D17AE032000499484651
:1054E000FFF784FF49460500307DFFF75BFF0DABFA
:1054F000B0600F2200939B460021002348460AF02B
:1055000007F801220D9B9343013B984633699D4266
:1055100000D37EE07F274446737D00211800984623
:10552000FFF740FF2A0001000BAB4046FFF7B4FE37
:10553000757D804600212800FFF734FF42460100B8
:105540000CAB2800FFF7A8FE757D804600212800DF
:10555000FFF728FF424601005B462800FFF79CFE4C
:105560000021020000201378551C3A001A408A409E
:105570005BB2104307312A00002BF4DB0B99336830
:105580008C466344A3422CD9039BDB073BD5002305
:10559000002405935B460D2200930021002348461A
:1055A0000A9D09F0B5FF53469C6206240D9A5D6280
:1055B0001A62049ADA62059A1A63200015B03CBC9C
:1055C00090469946A246AB46F0BD022B00D0A7E11B
:1055D0004946504609F05CFF09240028EDD1082413
:1055E000EBE70C998C466344A34272D83369AB4213
:1055F00092D8C9E70823184014D002231843039017
:105600000E910EAE5BE70823039A134207D000F019
:1056100045FB03990A42BAD108230B42F7D1504601
:1056200000F078FA0EAE0C6A002300960D220021DD
:10563000484609F06DFF0E9B9C4202D00223039363
:105640003BE7534600960E930C2200230021484668
:1056500009F016FF53461B6B0593002BDFD0534612
:105660009C6ADB6A04930DAB9B460325002C44DB4C
:1056700053460D935B4600220093002100234846C9
:1056800009F0FEFE5B4601220093002100234846FC
:105690000D9409F0F5FE5B460F22009300210023D4
:1056A000484609F035FF01230D9A00211340059A61
:1056B000484613430D935B460F220093002309F0E5
:1056C000DFFE0724022D00D077E7504600F09CF95A
:1056D00073E70D9B0400002B00D179E772689446B4
:1056E00063440593002829D1002B00D170E7039B68
:1056F000DB0700D56CE70225BAE7631C079332008D
:1057000004994846FFF772FE4946307DFFF74AFE8E
:10571000079BF1689B00B060C91A0B68002B05D08D
:10572000002301339A008A58002AFAD15246936224
:105730000423D06213635163032599E73369451E3F
:105740009C46059B6544002B00D141E7002D00D10C
:10575000D0E00823039A1A40089200D1D1E05246C3
:105760003F3313700733537007339370123BD3707A
:105770000333137109335371033393710023D371CE
:10578000002306934B467F27B1462E000993002441
:1057900000213A003078731C02408A40144342B220
:1057A0001D0007311E00002AF3DB1F2906D8402206
:1057B000024203D03F3A8A4052421443002600215D
:1057C0003A001878013302408A40164342B207314A
:1057D000002AF5DB1F2906D84023034203D03F3BB4
:1057E0008B405B421E43002C13D015DC631C119AC6
:1057F00007939B00D31A984619685346002B02D092
:10580000089B002B43D000292BD0002E6CD0AE1962
:10581000BDE701230693F8E74B46187DFF2856D0D5
:1058200007230340022B4FD02CD9032B2CD0042B61
:1058300076D1E20052424B46DB6849469C46896875
:1058400062445B46FFF728FD0D99002909D05346B5
:10585000002BDAD00AAB0022504600F06DF8002889
:10586000D3D0099B4E469946039BDB0700D591E6B2
:10587000089B002B00D1F8E60325002C00DBF7E69F
:1058800000F018FA002B4BD1A2005242D3E70A9B3A
:105890000D93002940D05B46AB465546A246444690
:1058A000B0461E0003E004342168002911D06118BD
:1058B00033000022280000F03FF80028F3D0AA4669
:1058C0005D46B3464646A0E762005242B3E7002277
:1058D000B1E7099B5446B346AA464E469946039BF8
:1058E000DB0700D556E60AE7099B9946069B002B85
:1058F00000D16DE6039BDB0700D569E60024022595
:10590000B6E65346DA795833012A01D00A9337E7CD
:10591000783B1B680A9333E7099B4E469946DEE7BE
:1059200007F0B6FE00F0DAF971E6C0461EB400F0EA
:105930009BF81EBC09F0CCFDF0B5C64600B59846F4
:10594000037882B00E00472B1DD000232C4C01930E
:10595000236820009B689847012500280ED13368F2
:1059600001AA1F69210001233000B847002831D166
:105970000025280002B004BC9046F0BD019B013513
:105980001B680193EBE743784E2BDED18378552BD0
:10599000DBD1C378432BD8D10379462B24D00379AC
:1059A000432BD2D143792B2BCFD183792B2BCCD145
:1059B000C279012AC9D80300203B1C685830012A4B
:1059C0000CD00190236820009B689847012500288F
:1059D000C5D0D3E74346019A1A60CAE723002000E6
:1059E000783B1C680190EDE743794F2BD7D1837941
:1059F000522BD4D1C379002BD1D10193014CA7E70D
:105A0000180501101005011010B5040000F0EAF9A6
:105A100023002278203B472A05D08268002A20D123
:105A20008360012010BD62784E2AF6D1A278552AF3
:105A3000F3D1E278432AF0D12279432AEDD1627979
:105A40002B2AEAD1A2792B2AE7D1E279012AE4D8DC
:105A5000DA690132DA61012AE3D182689A618360EE
:105A6000DFE700F01BF9C04610B500F0BBF9836812
:105A7000002B2ED020229A5C472A04D0002282607C
:105A80002033180010BD263A9A5C4E2AF6D12C3AE3
:105A90009A5C552AF2D1323A9A5C432AEED11F3AE7
:105AA0009A5C432AEAD11E3A9A5C2B2AE6D1053A3F
:105AB0009A5C2B2AE2D1043A9A5C012ADED8DA6990
:105AC000013ADA61002ADBD19A69826000229A6188
:105AD000D6E700F0E3F8C046027803000020472A2A
